{
  "_format": "hh-sol-artifact-1",
  "contractName": "Patient",
  "sourceName": "contracts/Patient.sol",
  "abi": [
    {
      "inputs": [],
      "stateMutability": "nonpayable",
      "type": "constructor"
    },
    {
      "anonymous": false,
      "inputs": [
        {
          "indexed": true,
          "internalType": "address",
          "name": "owner",
          "type": "address"
        },
        {
          "indexed": true,
          "internalType": "address",
          "name": "approved",
          "type": "address"
        },
        {
          "indexed": true,
          "internalType": "uint256",
          "name": "tokenId",
          "type": "uint256"
        }
      ],
      "name": "Approval",
      "type": "event"
    },
    {
      "anonymous": false,
      "inputs": [
        {
          "indexed": true,
          "internalType": "address",
          "name": "owner",
          "type": "address"
        },
        {
          "indexed": true,
          "internalType": "address",
          "name": "operator",
          "type": "address"
        },
        {
          "indexed": false,
          "internalType": "bool",
          "name": "approved",
          "type": "bool"
        }
      ],
      "name": "ApprovalForAll",
      "type": "event"
    },
    {
      "anonymous": false,
      "inputs": [
        {
          "indexed": true,
          "internalType": "address",
          "name": "previousOwner",
          "type": "address"
        },
        {
          "indexed": true,
          "internalType": "address",
          "name": "newOwner",
          "type": "address"
        }
      ],
      "name": "OwnershipTransferred",
      "type": "event"
    },
    {
      "anonymous": false,
      "inputs": [
        {
          "indexed": true,
          "internalType": "address",
          "name": "from",
          "type": "address"
        },
        {
          "indexed": true,
          "internalType": "address",
          "name": "to",
          "type": "address"
        },
        {
          "indexed": true,
          "internalType": "uint256",
          "name": "tokenId",
          "type": "uint256"
        }
      ],
      "name": "Transfer",
      "type": "event"
    },
    {
      "anonymous": false,
      "inputs": [
        {
          "indexed": false,
          "internalType": "uint256",
          "name": "patientId",
          "type": "uint256"
        }
      ],
      "name": "patientId",
      "type": "event"
    },
    {
      "inputs": [],
      "name": "_tokenIds",
      "outputs": [
        {
          "internalType": "uint256",
          "name": "_value",
          "type": "uint256"
        }
      ],
      "stateMutability": "view",
      "type": "function"
    },
    {
      "inputs": [
        {
          "internalType": "string",
          "name": "_medicaldetails",
          "type": "string"
        },
        {
          "internalType": "address",
          "name": "_patientAddress",
          "type": "address"
        }
      ],
      "name": "addMedicalDetails",
      "outputs": [],
      "stateMutability": "nonpayable",
      "type": "function"
    },
    {
      "inputs": [
        {
          "internalType": "address",
          "name": "to",
          "type": "address"
        },
        {
          "internalType": "uint256",
          "name": "tokenId",
          "type": "uint256"
        }
      ],
      "name": "approve",
      "outputs": [],
      "stateMutability": "nonpayable",
      "type": "function"
    },
    {
      "inputs": [
        {
          "internalType": "address",
          "name": "owner",
          "type": "address"
        }
      ],
      "name": "balanceOf",
      "outputs": [
        {
          "internalType": "uint256",
          "name": "",
          "type": "uint256"
        }
      ],
      "stateMutability": "view",
      "type": "function"
    },
    {
      "inputs": [
        {
          "internalType": "string",
          "name": "_personalDetails",
          "type": "string"
        },
        {
          "internalType": "address",
          "name": "_patientAddress",
          "type": "address"
        }
      ],
      "name": "createPatientAccount",
      "outputs": [],
      "stateMutability": "nonpayable",
      "type": "function"
    },
    {
      "inputs": [
        {
          "internalType": "uint256",
          "name": "tokenId",
          "type": "uint256"
        }
      ],
      "name": "getApproved",
      "outputs": [
        {
          "internalType": "address",
          "name": "",
          "type": "address"
        }
      ],
      "stateMutability": "view",
      "type": "function"
    },
    {
      "inputs": [],
      "name": "getCurrentTokenId",
      "outputs": [
        {
          "internalType": "uint256",
          "name": "_tokenId",
          "type": "uint256"
        }
      ],
      "stateMutability": "view",
      "type": "function"
    },
    {
      "inputs": [
        {
          "internalType": "address",
          "name": "_patientAdress",
          "type": "address"
        }
      ],
      "name": "getPatientId",
      "outputs": [
        {
          "internalType": "uint256",
          "name": "_patientId",
          "type": "uint256"
        }
      ],
      "stateMutability": "view",
      "type": "function"
    },
    {
      "inputs": [
        {
          "internalType": "uint256",
          "name": "_patientId",
          "type": "uint256"
        }
      ],
      "name": "getPatientRecords",
      "outputs": [
        {
          "components": [
            {
              "internalType": "string",
              "name": "personal",
              "type": "string"
            },
            {
              "internalType": "string",
              "name": "medical",
              "type": "string"
            },
            {
              "internalType": "uint256",
              "name": "tokenId",
              "type": "uint256"
            }
          ],
          "internalType": "struct Patient.PatientDetails",
          "name": "_patientrecord",
          "type": "tuple"
        }
      ],
      "stateMutability": "view",
      "type": "function"
    },
    {
      "inputs": [
        {
          "internalType": "address",
          "name": "owner",
          "type": "address"
        },
        {
          "internalType": "address",
          "name": "operator",
          "type": "address"
        }
      ],
      "name": "isApprovedForAll",
      "outputs": [
        {
          "internalType": "bool",
          "name": "",
          "type": "bool"
        }
      ],
      "stateMutability": "view",
      "type": "function"
    },
    {
      "inputs": [],
      "name": "name",
      "outputs": [
        {
          "internalType": "string",
          "name": "",
          "type": "string"
        }
      ],
      "stateMutability": "view",
      "type": "function"
    },
    {
      "inputs": [],
      "name": "owner",
      "outputs": [
        {
          "internalType": "address",
          "name": "",
          "type": "address"
        }
      ],
      "stateMutability": "view",
      "type": "function"
    },
    {
      "inputs": [
        {
          "internalType": "uint256",
          "name": "tokenId",
          "type": "uint256"
        }
      ],
      "name": "ownerOf",
      "outputs": [
        {
          "internalType": "address",
          "name": "",
          "type": "address"
        }
      ],
      "stateMutability": "view",
      "type": "function"
    },
    {
      "inputs": [],
      "name": "renounceOwnership",
      "outputs": [],
      "stateMutability": "nonpayable",
      "type": "function"
    },
    {
      "inputs": [
        {
          "internalType": "address",
          "name": "from",
          "type": "address"
        },
        {
          "internalType": "address",
          "name": "to",
          "type": "address"
        },
        {
          "internalType": "uint256",
          "name": "tokenId",
          "type": "uint256"
        }
      ],
      "name": "safeTransferFrom",
      "outputs": [],
      "stateMutability": "nonpayable",
      "type": "function"
    },
    {
      "inputs": [
        {
          "internalType": "address",
          "name": "from",
          "type": "address"
        },
        {
          "internalType": "address",
          "name": "to",
          "type": "address"
        },
        {
          "internalType": "uint256",
          "name": "tokenId",
          "type": "uint256"
        },
        {
          "internalType": "bytes",
          "name": "data",
          "type": "bytes"
        }
      ],
      "name": "safeTransferFrom",
      "outputs": [],
      "stateMutability": "nonpayable",
      "type": "function"
    },
    {
      "inputs": [
        {
          "internalType": "address",
          "name": "operator",
          "type": "address"
        },
        {
          "internalType": "bool",
          "name": "approved",
          "type": "bool"
        }
      ],
      "name": "setApprovalForAll",
      "outputs": [],
      "stateMutability": "nonpayable",
      "type": "function"
    },
    {
      "inputs": [
        {
          "internalType": "bytes4",
          "name": "interfaceId",
          "type": "bytes4"
        }
      ],
      "name": "supportsInterface",
      "outputs": [
        {
          "internalType": "bool",
          "name": "",
          "type": "bool"
        }
      ],
      "stateMutability": "view",
      "type": "function"
    },
    {
      "inputs": [],
      "name": "symbol",
      "outputs": [
        {
          "internalType": "string",
          "name": "",
          "type": "string"
        }
      ],
      "stateMutability": "view",
      "type": "function"
    },
    {
      "inputs": [
        {
          "internalType": "uint256",
          "name": "tokenId",
          "type": "uint256"
        }
      ],
      "name": "tokenURI",
      "outputs": [
        {
          "internalType": "string",
          "name": "",
          "type": "string"
        }
      ],
      "stateMutability": "view",
      "type": "function"
    },
    {
      "inputs": [
        {
          "internalType": "address",
          "name": "from",
          "type": "address"
        },
        {
          "internalType": "address",
          "name": "to",
          "type": "address"
        },
        {
          "internalType": "uint256",
          "name": "tokenId",
          "type": "uint256"
        }
      ],
      "name": "transferFrom",
      "outputs": [],
      "stateMutability": "nonpayable",
      "type": "function"
    },
    {
      "inputs": [
        {
          "internalType": "address",
          "name": "newOwner",
          "type": "address"
        }
      ],
      "name": "transferOwnership",
      "outputs": [],
      "stateMutability": "nonpayable",
      "type": "function"
    }
  ],
  "bytecode": "0x60806040523480156200001157600080fd5b506040518060400160405280601381526020017f4865616c74682043617265205265636f726473000000000000000000000000008152506040518060400160405280600381526020017f4843520000000000000000000000000000000000000000000000000000000000815250816000908051906020019062000096929190620001d3565b508060019080519060200190620000af929190620001d3565b505050620000d2620000c6620000ef60201b60201c565b620000f760201b60201c565b620000e96007620001bd60201b620010bc1760201c565b620002e8565b600033905090565b6000600660009054906101000a900473ffffffffffffffffffffffffffffffffffffffff16905081600660006101000a81548173ffffffffffffffffffffffffffffffffffffffff021916908373ffffffffffffffffffffffffffffffffffffffff1602179055508173ffffffffffffffffffffffffffffffffffffffff168173ffffffffffffffffffffffffffffffffffffffff167f8be0079c531659141344cd1fd0a4f28419497f9722a3daafe3b4186f6b6457e060405160405180910390a35050565b6001816000016000828254019250508190555050565b828054620001e190620002b2565b90600052602060002090601f01602090048101928262000205576000855562000251565b82601f106200022057805160ff191683800117855562000251565b8280016001018555821562000251579182015b828111156200025057825182559160200191906001019062000233565b5b50905062000260919062000264565b5090565b5b808211156200027f57600081600090555060010162000265565b5090565b7f4e487b7100000000000000000000000000000000000000000000000000000000600052602260045260246000fd5b60006002820490506001821680620002cb57607f821691505b60208210811415620002e257620002e162000283565b5b50919050565b61322680620002f86000396000f3fe608060405234801561001057600080fd5b50600436106101425760003560e01c8063715018a6116100b8578063b88d4fde1161007c578063b88d4fde14610363578063c87b56dd1461037f578063d7aeae2f146103af578063dce7e843146103cb578063e985e9c5146103fb578063f2fde38b1461042b57610142565b8063715018a6146102e35780638da5cb5b146102ed57806395d89b411461030b578063a22cb46514610329578063aa46a4001461034557610142565b806323b872dd1161010a57806323b872dd146101fd5780632604fa7b1461021957806342842e0e1461024957806356189236146102655780636352211e1461028357806370a08231146102b357610142565b806301ffc9a71461014757806306fdde0314610177578063081812fc14610195578063095ea7b3146101c55780631778d14d146101e1575b600080fd5b610161600480360381019061015c919061204c565b610447565b60405161016e9190612094565b60405180910390f35b61017f610529565b60405161018c9190612148565b60405180910390f35b6101af60048036038101906101aa91906121a0565b6105bb565b6040516101bc919061220e565b60405180910390f35b6101df60048036038101906101da9190612255565b610601565b005b6101fb60048036038101906101f691906123ca565b610719565b005b61021760048036038101906102129190612426565b6109c7565b005b610233600480360381019061022e9190612479565b610a27565b60405161024091906124b5565b60405180910390f35b610263600480360381019061025e9190612426565b610a70565b005b61026d610a90565b60405161027a91906124b5565b60405180910390f35b61029d600480360381019061029891906121a0565b610aaf565b6040516102aa919061220e565b60405180910390f35b6102cd60048036038101906102c89190612479565b610b61565b6040516102da91906124b5565b60405180910390f35b6102eb610c19565b005b6102f5610c2d565b604051610302919061220e565b60405180910390f35b610313610c57565b6040516103209190612148565b60405180910390f35b610343600480360381019061033e91906124fc565b610ce9565b005b61034d610cff565b60405161035a91906124b5565b60405180910390f35b61037d600480360381019061037891906125dd565b610d0b565b005b610399600480360381019061039491906121a0565b610d6d565b6040516103a69190612148565b60405180910390f35b6103c960048036038101906103c491906123ca565b610dd5565b005b6103e560048036038101906103e091906121a0565b610e49565b6040516103f29190612710565b60405180910390f35b61041560048036038101906104109190612732565b610fa4565b6040516104229190612094565b60405180910390f35b61044560048036038101906104409190612479565b611038565b005b60007f80ac58cd000000000000000000000000000000000000000000000000000000007bffffffffffffffffffffffffffffffffffffffffffffffffffffffff1916827bffffffffffffffffffffffffffffffffffffffffffffffffffffffff1916148061051257507f5b5e139f000000000000000000000000000000000000000000000000000000007bffffffffffffffffffffffffffffffffffffffffffffffffffffffff1916827bffffffffffffffffffffffffffffffffffffffffffffffffffffffff1916145b806105225750610521826110d2565b5b9050919050565b606060008054610538906127a1565b80601f0160208091040260200160405190810160405280929190818152602001828054610564906127a1565b80156105b15780601f10610586576101008083540402835291602001916105b1565b820191906000526020600020905b81548152906001019060200180831161059457829003601f168201915b5050505050905090565b60006105c68261113c565b6004600083815260200190815260200160002060009054906101000a900473ffffffffffffffffffffffffffffffffffffffff169050919050565b600061060c82610aaf565b90508073ffffffffffffffffffffffffffffffffffffffff168373ffffffffffffffffffffffffffffffffffffffff16141561067d576040517f08c379a000000000000000000000000000000000000000000000000000000000815260040161067490612845565b60405180910390fd5b8073ffffffffffffffffffffffffffffffffffffffff1661069c611187565b73ffffffffffffffffffffffffffffffffffffffff1614806106cb57506106ca816106c5611187565b610fa4565b5b61070a576040517f08c379a0000000000000000000000000000000000000000000000000000000008152600401610701906128d7565b60405180910390fd5b610714838361118f565b505050565b6000600860008373ffffffffffffffffffffffffffffffffffffffff1673ffffffffffffffffffffffffffffffffffffffff1681526020019081526020016000205411156107d8577f9e57f37936db2f7f44773daea5376346159fea921b7dff3a60944e3d96fcb5b6600860008373ffffffffffffffffffffffffffffffffffffffff1673ffffffffffffffffffffffffffffffffffffffff168152602001908152602001600020546040516107cf91906124b5565b60405180910390a15b6000600860003373ffffffffffffffffffffffffffffffffffffffff1673ffffffffffffffffffffffffffffffffffffffff168152602001908152602001600020541461085a576040517f08c379a000000000000000000000000000000000000000000000000000000000815260040161085190612943565b60405180910390fd5b6108646007611248565b600860008373ffffffffffffffffffffffffffffffffffffffff1673ffffffffffffffffffffffffffffffffffffffff168152602001908152602001600020819055506108af611f1c565b8281600001819052506108c26007611248565b81604001818152505080600960006108da6007611248565b81526020019081526020016000206000820151816000019080519060200190610904929190611f3d565b506020820151816001019080519060200190610921929190611f3d565b50604082015181600201559050506109428261093d6007611248565b611256565b61094c60076110bc565b7f9e57f37936db2f7f44773daea5376346159fea921b7dff3a60944e3d96fcb5b6600860008473ffffffffffffffffffffffffffffffffffffffff1673ffffffffffffffffffffffffffffffffffffffff168152602001908152602001600020546040516109ba91906124b5565b60405180910390a1505050565b6109d86109d2611187565b82611274565b610a17576040517f08c379a0000000000000000000000000000000000000000000000000000000008152600401610a0e906129d5565b60405180910390fd5b610a22838383611309565b505050565b6000600860008373ffffffffffffffffffffffffffffffffffffffff1673ffffffffffffffffffffffffffffffffffffffff168152602001908152602001600020549050919050565b610a8b83838360405180602001604052806000815250610d0b565b505050565b600080610a9d6007611248565b9050610aa881611570565b8091505090565b6000806002600084815260200190815260200160002060009054906101000a900473ffffffffffffffffffffffffffffffffffffffff169050600073ffffffffffffffffffffffffffffffffffffffff168173ffffffffffffffffffffffffffffffffffffffff161415610b58576040517f08c379a0000000000000000000000000000000000000000000000000000000008152600401610b4f90612a41565b60405180910390fd5b80915050919050565b60008073ffffffffffffffffffffffffffffffffffffffff168273ffffffffffffffffffffffffffffffffffffffff161415610bd2576040517f08c379a0000000000000000000000000000000000000000000000000000000008152600401610bc990612ad3565b60405180910390fd5b600360008373ffffffffffffffffffffffffffffffffffffffff1673ffffffffffffffffffffffffffffffffffffffff168152602001908152602001600020549050919050565b610c21611609565b610c2b6000611687565b565b6000600660009054906101000a900473ffffffffffffffffffffffffffffffffffffffff16905090565b606060018054610c66906127a1565b80601f0160208091040260200160405190810160405280929190818152602001828054610c92906127a1565b8015610cdf5780601f10610cb457610100808354040283529160200191610cdf565b820191906000526020600020905b815481529060010190602001808311610cc257829003601f168201915b5050505050905090565b610cfb610cf4611187565b838361174d565b5050565b60078060000154905081565b610d1c610d16611187565b83611274565b610d5b576040517f08c379a0000000000000000000000000000000000000000000000000000000008152600401610d52906129d5565b60405180910390fd5b610d67848484846118ba565b50505050565b6060610d788261113c565b6000610d82611916565b90506000815111610da25760405180602001604052806000815250610dcd565b80610dac8461192d565b604051602001610dbd929190612b2f565b6040516020818303038152906040525b915050919050565b6000600860008373ffffffffffffffffffffffffffffffffffffffff1673ffffffffffffffffffffffffffffffffffffffff16815260200190815260200160002054905082600960008381526020019081526020016000206001019080519060200190610e43929190611f3d565b50505050565b610e51611f1c565b60096000838152602001908152602001600020604051806060016040529081600082018054610e7f906127a1565b80601f0160208091040260200160405190810160405280929190818152602001828054610eab906127a1565b8015610ef85780601f10610ecd57610100808354040283529160200191610ef8565b820191906000526020600020905b815481529060010190602001808311610edb57829003601f168201915b50505050508152602001600182018054610f11906127a1565b80601f0160208091040260200160405190810160405280929190818152602001828054610f3d906127a1565b8015610f8a5780601f10610f5f57610100808354040283529160200191610f8a565b820191906000526020600020905b815481529060010190602001808311610f6d57829003601f168201915b505050505081526020016002820154815250509050919050565b6000600560008473ffffffffffffffffffffffffffffffffffffffff1673ffffffffffffffffffffffffffffffffffffffff16815260200190815260200160002060008373ffffffffffffffffffffffffffffffffffffffff1673ffffffffffffffffffffffffffffffffffffffff16815260200190815260200160002060009054906101000a900460ff16905092915050565b611040611609565b600073ffffffffffffffffffffffffffffffffffffffff168173ffffffffffffffffffffffffffffffffffffffff1614156110b0576040517f08c379a00000000000000000000000000000000000000000000000000000000081526004016110a790612bc5565b60405180910390fd5b6110b981611687565b50565b6001816000016000828254019250508190555050565b60007f01ffc9a7000000000000000000000000000000000000000000000000000000007bffffffffffffffffffffffffffffffffffffffffffffffffffffffff1916827bffffffffffffffffffffffffffffffffffffffffffffffffffffffff1916149050919050565b61114581611a8e565b611184576040517f08c379a000000000000000000000000000000000000000000000000000000000815260040161117b90612a41565b60405180910390fd5b50565b600033905090565b816004600083815260200190815260200160002060006101000a81548173ffffffffffffffffffffffffffffffffffffffff021916908373ffffffffffffffffffffffffffffffffffffffff160217905550808273ffffffffffffffffffffffffffffffffffffffff1661120283610aaf565b73ffffffffffffffffffffffffffffffffffffffff167f8c5be1e5ebec7d5bd14f71427d1e84f3dd0314c0f7b2291e5b200ac8c7c3b92560405160405180910390a45050565b600081600001549050919050565b611270828260405180602001604052806000815250611afa565b5050565b60008061128083610aaf565b90508073ffffffffffffffffffffffffffffffffffffffff168473ffffffffffffffffffffffffffffffffffffffff1614806112c257506112c18185610fa4565b5b8061130057508373ffffffffffffffffffffffffffffffffffffffff166112e8846105bb565b73ffffffffffffffffffffffffffffffffffffffff16145b91505092915050565b8273ffffffffffffffffffffffffffffffffffffffff1661132982610aaf565b73ffffffffffffffffffffffffffffffffffffffff161461137f576040517f08c379a000000000000000000000000000000000000000000000000000000000815260040161137690612c57565b60405180910390fd5b600073ffffffffffffffffffffffffffffffffffffffff168273ffffffffffffffffffffffffffffffffffffffff1614156113ef576040517f08c379a00000000000000000000000000000000000000000000000000000000081526004016113e690612ce9565b60405180910390fd5b6113fa838383611b55565b61140560008261118f565b6001600360008573ffffffffffffffffffffffffffffffffffffffff1673ffffffffffffffffffffffffffffffffffffffff16815260200190815260200160002060008282546114559190612d38565b925050819055506001600360008473ffffffffffffffffffffffffffffffffffffffff1673ffffffffffffffffffffffffffffffffffffffff16815260200190815260200160002060008282546114ac9190612d6c565b92505081905550816002600083815260200190815260200160002060006101000a81548173ffffffffffffffffffffffffffffffffffffffff021916908373ffffffffffffffffffffffffffffffffffffffff160217905550808273ffffffffffffffffffffffffffffffffffffffff168473ffffffffffffffffffffffffffffffffffffffff167fddf252ad1be2c89b69c2b068fc378daa952ba7f163c4a11628f55a4df523b3ef60405160405180910390a461156b838383611b5a565b505050565b6116068160405160240161158491906124b5565b6040516020818303038152906040527ff82c50f1000000000000000000000000000000000000000000000000000000007bffffffffffffffffffffffffffffffffffffffffffffffffffffffff19166020820180517bffffffffffffffffffffffffffffffffffffffffffffffffffffffff8381831617835250505050611b5f565b50565b611611611187565b73ffffffffffffffffffffffffffffffffffffffff1661162f610c2d565b73ffffffffffffffffffffffffffffffffffffffff1614611685576040517f08c379a000000000000000000000000000000000000000000000000000000000815260040161167c90612e0e565b60405180910390fd5b565b6000600660009054906101000a900473ffffffffffffffffffffffffffffffffffffffff16905081600660006101000a81548173ffffffffffffffffffffffffffffffffffffffff021916908373ffffffffffffffffffffffffffffffffffffffff1602179055508173ffffffffffffffffffffffffffffffffffffffff168173ffffffffffffffffffffffffffffffffffffffff167f8be0079c531659141344cd1fd0a4f28419497f9722a3daafe3b4186f6b6457e060405160405180910390a35050565b8173ffffffffffffffffffffffffffffffffffffffff168373ffffffffffffffffffffffffffffffffffffffff1614156117bc576040517f08c379a00000000000000000000000000000000000000000000000000000000081526004016117b390612e7a565b60405180910390fd5b80600560008573ffffffffffffffffffffffffffffffffffffffff1673ffffffffffffffffffffffffffffffffffffffff16815260200190815260200160002060008473ffffffffffffffffffffffffffffffffffffffff1673ffffffffffffffffffffffffffffffffffffffff16815260200190815260200160002060006101000a81548160ff0219169083151502179055508173ffffffffffffffffffffffffffffffffffffffff168373ffffffffffffffffffffffffffffffffffffffff167f17307eab39ab6107e8899845ad3d59bd9653f200f220920489ca2b5937696c31836040516118ad9190612094565b60405180910390a3505050565b6118c5848484611309565b6118d184848484611b88565b611910576040517f08c379a000000000000000000000000000000000000000000000000000000000815260040161190790612f0c565b60405180910390fd5b50505050565b606060405180602001604052806000815250905090565b60606000821415611975576040518060400160405280600181526020017f30000000000000000000000000000000000000000000000000000000000000008152509050611a89565b600082905060005b600082146119a757808061199090612f2c565b915050600a826119a09190612fa4565b915061197d565b60008167ffffffffffffffff8111156119c3576119c261229f565b5b6040519080825280601f01601f1916602001820160405280156119f55781602001600182028036833780820191505090505b5090505b60008514611a8257600182611a0e9190612d38565b9150600a85611a1d9190612fd5565b6030611a299190612d6c565b60f81b818381518110611a3f57611a3e613006565b5b60200101907effffffffffffffffffffffffffffffffffffffffffffffffffffffffffffff1916908160001a905350600a85611a7b9190612fa4565b94506119f9565b8093505050505b919050565b60008073ffffffffffffffffffffffffffffffffffffffff166002600084815260200190815260200160002060009054906101000a900473ffffffffffffffffffffffffffffffffffffffff1673ffffffffffffffffffffffffffffffffffffffff1614159050919050565b611b048383611d1f565b611b116000848484611b88565b611b50576040517f08c379a0000000000000000000000000000000000000000000000000000000008152600401611b4790612f0c565b60405180910390fd5b505050565b505050565b505050565b60008151905060006a636f6e736f6c652e6c6f679050602083016000808483855afa5050505050565b6000611ba98473ffffffffffffffffffffffffffffffffffffffff16611ef9565b15611d12578373ffffffffffffffffffffffffffffffffffffffff1663150b7a02611bd2611187565b8786866040518563ffffffff1660e01b8152600401611bf4949392919061308a565b602060405180830381600087803b158015611c0e57600080fd5b505af1925050508015611c3f57506040513d601f19601f82011682018060405250810190611c3c91906130eb565b60015b611cc2573d8060008114611c6f576040519150601f19603f3d011682016040523d82523d6000602084013e611c74565b606091505b50600081511415611cba576040517f08c379a0000000000000000000000000000000000000000000000000000000008152600401611cb190612f0c565b60405180910390fd5b805181602001fd5b63150b7a0260e01b7bffffffffffffffffffffffffffffffffffffffffffffffffffffffff1916817bffffffffffffffffffffffffffffffffffffffffffffffffffffffff191614915050611d17565b600190505b949350505050565b600073ffffffffffffffffffffffffffffffffffffffff168273ffffffffffffffffffffffffffffffffffffffff161415611d8f576040517f08c379a0000000000000000000000000000000000000000000000000000000008152600401611d8690613164565b60405180910390fd5b611d9881611a8e565b15611dd8576040517f08c379a0000000000000000000000000000000000000000000000000000000008152600401611dcf906131d0565b60405180910390fd5b611de460008383611b55565b6001600360008473ffffffffffffffffffffffffffffffffffffffff1673ffffffffffffffffffffffffffffffffffffffff1681526020019081526020016000206000828254611e349190612d6c565b92505081905550816002600083815260200190815260200160002060006101000a81548173ffffffffffffffffffffffffffffffffffffffff021916908373ffffffffffffffffffffffffffffffffffffffff160217905550808273ffffffffffffffffffffffffffffffffffffffff16600073ffffffffffffffffffffffffffffffffffffffff167fddf252ad1be2c89b69c2b068fc378daa952ba7f163c4a11628f55a4df523b3ef60405160405180910390a4611ef560008383611b5a565b5050565b6000808273ffffffffffffffffffffffffffffffffffffffff163b119050919050565b60405180606001604052806060815260200160608152602001600081525090565b828054611f49906127a1565b90600052602060002090601f016020900481019282611f6b5760008555611fb2565b82601f10611f8457805160ff1916838001178555611fb2565b82800160010185558215611fb2579182015b82811115611fb1578251825591602001919060010190611f96565b5b509050611fbf9190611fc3565b5090565b5b80821115611fdc576000816000905550600101611fc4565b5090565b6000604051905090565b600080fd5b600080fd5b60007fffffffff0000000000000000000000000000000000000000000000000000000082169050919050565b61202981611ff4565b811461203457600080fd5b50565b60008135905061204681612020565b92915050565b60006020828403121561206257612061611fea565b5b600061207084828501612037565b91505092915050565b60008115159050919050565b61208e81612079565b82525050565b60006020820190506120a96000830184612085565b92915050565b600081519050919050565b600082825260208201905092915050565b60005b838110156120e95780820151818401526020810190506120ce565b838111156120f8576000848401525b50505050565b6000601f19601f8301169050919050565b600061211a826120af565b61212481856120ba565b93506121348185602086016120cb565b61213d816120fe565b840191505092915050565b60006020820190508181036000830152612162818461210f565b905092915050565b6000819050919050565b61217d8161216a565b811461218857600080fd5b50565b60008135905061219a81612174565b92915050565b6000602082840312156121b6576121b5611fea565b5b60006121c48482850161218b565b91505092915050565b600073ffffffffffffffffffffffffffffffffffffffff82169050919050565b60006121f8826121cd565b9050919050565b612208816121ed565b82525050565b600060208201905061222360008301846121ff565b92915050565b612232816121ed565b811461223d57600080fd5b50565b60008135905061224f81612229565b92915050565b6000806040838503121561226c5761226b611fea565b5b600061227a85828601612240565b925050602061228b8582860161218b565b9150509250929050565b600080fd5b600080fd5b7f4e487b7100000000000000000000000000000000000000000000000000000000600052604160045260246000fd5b6122d7826120fe565b810181811067ffffffffffffffff821117156122f6576122f561229f565b5b80604052505050565b6000612309611fe0565b905061231582826122ce565b919050565b600067ffffffffffffffff8211156123355761233461229f565b5b61233e826120fe565b9050602081019050919050565b82818337600083830152505050565b600061236d6123688461231a565b6122ff565b9050828152602081018484840111156123895761238861229a565b5b61239484828561234b565b509392505050565b600082601f8301126123b1576123b0612295565b5b81356123c184826020860161235a565b91505092915050565b600080604083850312156123e1576123e0611fea565b5b600083013567ffffffffffffffff8111156123ff576123fe611fef565b5b61240b8582860161239c565b925050602061241c85828601612240565b9150509250929050565b60008060006060848603121561243f5761243e611fea565b5b600061244d86828701612240565b935050602061245e86828701612240565b925050604061246f8682870161218b565b9150509250925092565b60006020828403121561248f5761248e611fea565b5b600061249d84828501612240565b91505092915050565b6124af8161216a565b82525050565b60006020820190506124ca60008301846124a6565b92915050565b6124d981612079565b81146124e457600080fd5b50565b6000813590506124f6816124d0565b92915050565b6000806040838503121561251357612512611fea565b5b600061252185828601612240565b9250506020612532858286016124e7565b9150509250929050565b600067ffffffffffffffff8211156125575761255661229f565b5b612560826120fe565b9050602081019050919050565b600061258061257b8461253c565b6122ff565b90508281526020810184848401111561259c5761259b61229a565b5b6125a784828561234b565b509392505050565b600082601f8301126125c4576125c3612295565b5b81356125d484826020860161256d565b91505092915050565b600080600080608085870312156125f7576125f6611fea565b5b600061260587828801612240565b945050602061261687828801612240565b93505060406126278782880161218b565b925050606085013567ffffffffffffffff81111561264857612647611fef565b5b612654878288016125af565b91505092959194509250565b600082825260208201905092915050565b600061267c826120af565b6126868185612660565b93506126968185602086016120cb565b61269f816120fe565b840191505092915050565b6126b38161216a565b82525050565b600060608301600083015184820360008601526126d68282612671565b915050602083015184820360208601526126f08282612671565b915050604083015161270560408601826126aa565b508091505092915050565b6000602082019050818103600083015261272a81846126b9565b905092915050565b6000806040838503121561274957612748611fea565b5b600061275785828601612240565b925050602061276885828601612240565b9150509250929050565b7f4e487b7100000000000000000000000000000000000000000000000000000000600052602260045260246000fd5b600060028204905060018216806127b957607f821691505b602082108114156127cd576127cc612772565b5b50919050565b7f4552433732313a20617070726f76616c20746f2063757272656e74206f776e6560008201527f7200000000000000000000000000000000000000000000000000000000000000602082015250565b600061282f6021836120ba565b915061283a826127d3565b604082019050919050565b6000602082019050818103600083015261285e81612822565b9050919050565b7f4552433732313a20617070726f76652063616c6c6572206973206e6f7420746f60008201527f6b656e206f776e6572206e6f7220617070726f76656420666f7220616c6c0000602082015250565b60006128c1603e836120ba565b91506128cc82612865565b604082019050919050565b600060208201905081810360008301526128f0816128b4565b9050919050565b7f50617469656e74204163636f756e7420616c7265616479206578697374732121600082015250565b600061292d6020836120ba565b9150612938826128f7565b602082019050919050565b6000602082019050818103600083015261295c81612920565b9050919050565b7f4552433732313a2063616c6c6572206973206e6f7420746f6b656e206f776e6560008201527f72206e6f7220617070726f766564000000000000000000000000000000000000602082015250565b60006129bf602e836120ba565b91506129ca82612963565b604082019050919050565b600060208201905081810360008301526129ee816129b2565b9050919050565b7f4552433732313a20696e76616c696420746f6b656e2049440000000000000000600082015250565b6000612a2b6018836120ba565b9150612a36826129f5565b602082019050919050565b60006020820190508181036000830152612a5a81612a1e565b9050919050565b7f4552433732313a2061646472657373207a65726f206973206e6f74206120766160008201527f6c6964206f776e65720000000000000000000000000000000000000000000000602082015250565b6000612abd6029836120ba565b9150612ac882612a61565b604082019050919050565b60006020820190508181036000830152612aec81612ab0565b9050919050565b600081905092915050565b6000612b09826120af565b612b138185612af3565b9350612b238185602086016120cb565b80840191505092915050565b6000612b3b8285612afe565b9150612b478284612afe565b91508190509392505050565b7f4f776e61626c653a206e6577206f776e657220697320746865207a65726f206160008201527f6464726573730000000000000000000000000000000000000000000000000000602082015250565b6000612baf6026836120ba565b9150612bba82612b53565b604082019050919050565b60006020820190508181036000830152612bde81612ba2565b9050919050565b7f4552433732313a207472616e736665722066726f6d20696e636f72726563742060008201527f6f776e6572000000000000000000000000000000000000000000000000000000602082015250565b6000612c416025836120ba565b9150612c4c82612be5565b604082019050919050565b60006020820190508181036000830152612c7081612c34565b9050919050565b7f4552433732313a207472616e7366657220746f20746865207a65726f2061646460008201527f7265737300000000000000000000000000000000000000000000000000000000602082015250565b6000612cd36024836120ba565b9150612cde82612c77565b604082019050919050565b60006020820190508181036000830152612d0281612cc6565b9050919050565b7f4e487b7100000000000000000000000000000000000000000000000000000000600052601160045260246000fd5b6000612d438261216a565b9150612d4e8361216a565b925082821015612d6157612d60612d09565b5b828203905092915050565b6000612d778261216a565b9150612d828361216a565b9250827fffffffffffffffffffffffffffffffffffffffffffffffffffffffffffffffff03821115612db757612db6612d09565b5b828201905092915050565b7f4f776e61626c653a2063616c6c6572206973206e6f7420746865206f776e6572600082015250565b6000612df86020836120ba565b9150612e0382612dc2565b602082019050919050565b60006020820190508181036000830152612e2781612deb565b9050919050565b7f4552433732313a20617070726f766520746f2063616c6c657200000000000000600082015250565b6000612e646019836120ba565b9150612e6f82612e2e565b602082019050919050565b60006020820190508181036000830152612e9381612e57565b9050919050565b7f4552433732313a207472616e7366657220746f206e6f6e20455243373231526560008201527f63656976657220696d706c656d656e7465720000000000000000000000000000602082015250565b6000612ef66032836120ba565b9150612f0182612e9a565b604082019050919050565b60006020820190508181036000830152612f2581612ee9565b9050919050565b6000612f378261216a565b91507fffffffffffffffffffffffffffffffffffffffffffffffffffffffffffffffff821415612f6a57612f69612d09565b5b600182019050919050565b7f4e487b7100000000000000000000000000000000000000000000000000000000600052601260045260246000fd5b6000612faf8261216a565b9150612fba8361216a565b925082612fca57612fc9612f75565b5b828204905092915050565b6000612fe08261216a565b9150612feb8361216a565b925082612ffb57612ffa612f75565b5b828206905092915050565b7f4e487b7100000000000000000000000000000000000000000000000000000000600052603260045260246000fd5b600081519050919050565b600082825260208201905092915050565b600061305c82613035565b6130668185613040565b93506130768185602086016120cb565b61307f816120fe565b840191505092915050565b600060808201905061309f60008301876121ff565b6130ac60208301866121ff565b6130b960408301856124a6565b81810360608301526130cb8184613051565b905095945050505050565b6000815190506130e581612020565b92915050565b60006020828403121561310157613100611fea565b5b600061310f848285016130d6565b91505092915050565b7f4552433732313a206d696e7420746f20746865207a65726f2061646472657373600082015250565b600061314e6020836120ba565b915061315982613118565b602082019050919050565b6000602082019050818103600083015261317d81613141565b9050919050565b7f4552433732313a20746f6b656e20616c7265616479206d696e74656400000000600082015250565b60006131ba601c836120ba565b91506131c582613184565b602082019050919050565b600060208201905081810360008301526131e9816131ad565b905091905056fea264697066735822122032f1cf481a3d176b8610fee2cc2ad847ca33effe1effb0dfda122517e64eace964736f6c63430008090033",
  "linkReferences": {},
  "deployedLinkReferences": {}
}